{
  "contractName": "agencyAddress",
  "abi": [
    {
      "inputs": [
        {
          "name": "_agency",
          "type": "address"
        },
        {
          "name": "_owner",
          "type": "address"
        },
        {
          "name": "_time",
          "type": "uint256"
        },
        {
          "name": "_donateAddr",
          "type": "address"
        }
      ],
      "payable": false,
      "stateMutability": "nonpayable",
      "type": "constructor"
    },
    {
      "payable": true,
      "stateMutability": "payable",
      "type": "fallback"
    },
    {
      "constant": false,
      "inputs": [
        {
          "name": "_agency",
          "type": "address"
        },
        {
          "name": "_donationAmount",
          "type": "uint256"
        }
      ],
      "name": "receiveMoney",
      "outputs": [],
      "payable": true,
      "stateMutability": "payable",
      "type": "function"
    },
    {
      "constant": false,
      "inputs": [
        {
          "name": "_user",
          "type": "address"
        },
        {
          "name": "price",
          "type": "uint256"
        }
      ],
      "name": "refund",
      "outputs": [],
      "payable": true,
      "stateMutability": "payable",
      "type": "function"
    },
    {
      "constant": true,
      "inputs": [],
      "name": "getAddress",
      "outputs": [
        {
          "name": "",
          "type": "address"
        }
      ],
      "payable": false,
      "stateMutability": "view",
      "type": "function"
    }
  ],
  "bytecode": "0x6080604052600a60045534801561001557600080fd5b506040516080806104b68339810180604052608081101561003557600080fd5b8101908080519060200190929190805190602001909291908051906020019092919080519060200190929190505050600073ffffffffffffffffffffffffffffffffffffffff166000809054906101000a900473ffffffffffffffffffffffffffffffffffffffff1673ffffffffffffffffffffffffffffffffffffffff1614610127576040517f08c379a00000000000000000000000000000000000000000000000000000000081526004018080602001828103825260118152602001807f5b4552524f525d4e6f7420766163616e7400000000000000000000000000000081525060200191505060405180910390fd5b836000806101000a81548173ffffffffffffffffffffffffffffffffffffffff021916908373ffffffffffffffffffffffffffffffffffffffff16021790555082600160006101000a81548173ffffffffffffffffffffffffffffffffffffffff021916908373ffffffffffffffffffffffffffffffffffffffff1602179055508160038190555080600260006101000a81548173ffffffffffffffffffffffffffffffffffffffff021916908373ffffffffffffffffffffffffffffffffffffffff160217905550505050506102b3806102036000396000f3fe6080604052600436106100345760003560e01c806338cc483114610036578063410085df1461008d578063e8e8caa4146100db575b005b34801561004257600080fd5b5061004b610129565b604051808273ffffffffffffffffffffffffffffffffffffffff1673ffffffffffffffffffffffffffffffffffffffff16815260200191505060405180910390f35b6100d9600480360360408110156100a357600080fd5b81019080803573ffffffffffffffffffffffffffffffffffffffff16906020019092919080359060200190929190505050610131565b005b610127600480360360408110156100f157600080fd5b81019080803573ffffffffffffffffffffffffffffffffffffffff1690602001909291908035906020019092919050505061017c565b005b600030905090565b8173ffffffffffffffffffffffffffffffffffffffff166108fc829081150290604051600060405180830381858888f19350505050158015610177573d6000803e3d6000fd5b505050565b8173ffffffffffffffffffffffffffffffffffffffff166000809054906101000a900473ffffffffffffffffffffffffffffffffffffffff1673ffffffffffffffffffffffffffffffffffffffff16146101d557600080fd5b6003544210156101e457600080fd5b600260009054906101000a900473ffffffffffffffffffffffffffffffffffffffff1673ffffffffffffffffffffffffffffffffffffffff166108fc829081150290604051600060405180830381858888f1935050505015801561024c573d6000803e3d6000fd5b506000809054906101000a900473ffffffffffffffffffffffffffffffffffffffff1673ffffffffffffffffffffffffffffffffffffffff16fffea165627a7a72305820cd48a59e0b175a831d5ee0f252cd381c1a400ba196f8685d18f15c8f11cc14690029",
  "source": "pragma solidity ^0.5.0;\r\n\r\n/*해당 컨트랙트는 웹에서 구현할 필요가 없다.\r\n컨트랙트안의 함수만 호출이 되며 송금 환불 등의 역할을 한다.\r\n새로운 공연이 시작될 때마다 배포되며 설정한 날짜가 지나면 컨트랙트에서 정산이 완료된다.\r\n*/\r\ncontract agencyAddress {\r\n    address payable Agency; //공연 등록자\r\n    address payable Owner; // 우리 주소\r\n    address payable donationPoint; // 설정한 기부 포인트\r\n    \r\n    uint timeCancel; // 공연이 끝나는 날짜(돈을 받을 수 있는 날짜)\r\n    uint Fee = 10; // 우리에게 오는 수수료(%) 눈에 보이기 쉽게 일단 10으로 설정\r\n    \r\n //해당 함수는 처음 만들어질때만 생성이된다.\r\n// 변수들이 설정된다.\r\n    constructor (address payable _agency, address payable _owner, uint _time, address payable _donateAddr) public{\r\n        require(Agency == address(0), \"[ERROR]Not vacant\");\r\n        Agency = _agency;\r\n        Owner = _owner; // Our address\r\n        timeCancel= _time;\r\n        donationPoint=_donateAddr;\r\n    }\r\n    \r\n//이후 공연 등록자가 돈을 받을 때 실행하는 함수\r\n    function receiveMoney(address _agency, uint _donationAmount) external payable{\r\n        require (Agency == _agency);\r\n        require (now >= timeCancel);\r\n        //공연이 끝나는 날짜 이후가 되어야 받을 수 있다.\r\n\r\n        donationPoint.transfer(_donationAmount);\r\n        selfdestruct(Agency); // destruct contract and send ether to Agency\r\n/*순차적으로 기부자에게 돈을 보내고 수익금의 일부를 가져가며 컨트랙트를 파괴하고 남은 잔액은 공연 등록자에게 보낸다*/\r\n    }\r\n    \r\n//마찬가지로 호출되는 함수이며 환불할때 호출된다//\r\n    function refund(address payable  _user, uint price) external payable{\r\n        _user.transfer(price); // price는 티켓 가격\r\n    }\r\n    \r\n    //이 contract의 address 반환.\r\n    function getAddress() external view returns(address payable){\r\n        return address(this);\r\n    }\r\n\r\n    function () external payable{\r\n    }\r\n}\r\n",
  "sourcePath": "C:\\Users\\안시현\\prj\\whiteticket\\contracts\\agencyAddress.sol",
  "compiler": {
    "name": "solc",
    "version": "0.5.8+commit.23d335f2.Emscripten.clang"
  },
  "schemaVersion": "3.0.11",
  "updatedAt": "2019-08-02T02:25:25.661Z",
  "devdoc": {
    "methods": {}
  },
  "userdoc": {
    "methods": {}
  }
}