{
  "contractName": "Ticketing",
  "abi": [
    {
      "inputs": [],
      "payable": false,
      "stateMutability": "nonpayable",
      "type": "constructor"
    },
    {
      "constant": false,
      "inputs": [
        {
          "name": "artist",
          "type": "string"
        },
        {
          "name": "_row",
          "type": "uint256"
        },
        {
          "name": "_col",
          "type": "uint256"
        }
      ],
      "name": "selectSeat",
      "outputs": [
        {
          "name": "",
          "type": "bool"
        }
      ],
      "payable": true,
      "stateMutability": "payable",
      "type": "function"
    },
    {
      "constant": false,
      "inputs": [
        {
          "name": "artist",
          "type": "string"
        },
        {
          "name": "_row",
          "type": "uint256"
        },
        {
          "name": "_col",
          "type": "uint256"
        }
      ],
      "name": "cancelTicket",
      "outputs": [],
      "payable": true,
      "stateMutability": "payable",
      "type": "function"
    },
    {
      "constant": false,
      "inputs": [
        {
          "name": "artist",
          "type": "string"
        },
        {
          "name": "_row",
          "type": "uint256"
        },
        {
          "name": "_col",
          "type": "uint256"
        },
        {
          "name": "_seller",
          "type": "address"
        }
      ],
      "name": "reSellTicket",
      "outputs": [],
      "payable": true,
      "stateMutability": "payable",
      "type": "function"
    },
    {
      "constant": false,
      "inputs": [
        {
          "name": "artist",
          "type": "string"
        },
        {
          "name": "_row",
          "type": "uint256"
        },
        {
          "name": "_col",
          "type": "uint256"
        },
        {
          "name": "_ticketPrice",
          "type": "uint256"
        },
        {
          "name": "_limitTicketPrice",
          "type": "uint256"
        },
        {
          "name": "_cancelFee",
          "type": "uint256"
        },
        {
          "name": "_givingConstant",
          "type": "uint256"
        },
        {
          "name": "_timeCancel",
          "type": "uint256"
        },
        {
          "name": "_timeLastBook",
          "type": "uint256"
        },
        {
          "name": "_donateAddr",
          "type": "address"
        }
      ],
      "name": "newConcert",
      "outputs": [],
      "payable": false,
      "stateMutability": "nonpayable",
      "type": "function"
    },
    {
      "constant": false,
      "inputs": [
        {
          "name": "artist",
          "type": "string"
        },
        {
          "name": "_rewardFee",
          "type": "uint256"
        },
        {
          "name": "_rewardNum",
          "type": "uint256"
        },
        {
          "name": "_eventpercentage",
          "type": "uint256"
        }
      ],
      "name": "newReward",
      "outputs": [],
      "payable": false,
      "stateMutability": "nonpayable",
      "type": "function"
    },
    {
      "constant": false,
      "inputs": [
        {
          "name": "artist",
          "type": "string"
        }
      ],
      "name": "cancelConcert",
      "outputs": [],
      "payable": false,
      "stateMutability": "nonpayable",
      "type": "function"
    },
    {
      "constant": true,
      "inputs": [
        {
          "name": "artist",
          "type": "string"
        }
      ],
      "name": "CheckReward",
      "outputs": [
        {
          "name": "",
          "type": "uint256"
        }
      ],
      "payable": false,
      "stateMutability": "view",
      "type": "function"
    },
    {
      "constant": true,
      "inputs": [
        {
          "name": "artist",
          "type": "string"
        },
        {
          "name": "_row",
          "type": "uint256"
        },
        {
          "name": "_col",
          "type": "uint256"
        }
      ],
      "name": "isValidSeat",
      "outputs": [
        {
          "name": "",
          "type": "bool"
        }
      ],
      "payable": false,
      "stateMutability": "view",
      "type": "function"
    },
    {
      "constant": true,
      "inputs": [
        {
          "name": "artist",
          "type": "string"
        },
        {
          "name": "_price",
          "type": "uint256"
        }
      ],
      "name": "isValidPrice",
      "outputs": [
        {
          "name": "",
          "type": "bool"
        }
      ],
      "payable": false,
      "stateMutability": "view",
      "type": "function"
    }
  ],
  "bytecode": "0x608060405234801561001057600080fd5b50336000806101000a81548173ffffffffffffffffffffffffffffffffffffffff021916908373ffffffffffffffffffffffffffffffffffffffff160217905550613a61806100606000396000f3fe608060405260043610620000925760003560e01c80639dbc3ac511620000615780639dbc3ac51462000494578063dd0785781462000589578063dd5ecdfc1462000676578063e31ef7061462000767578063f87302cc146200084a5762000092565b80631af6e10d1462000097578063275c1eb614620001925780632c3ff5b71462000267578063869110f114620003a7575b600080fd5b348015620000a457600080fd5b506200017860048036036060811015620000bd57600080fd5b8101908080359060200190640100000000811115620000db57600080fd5b820183602082011115620000ee57600080fd5b803590602001918460018302840111640100000000831117156200011157600080fd5b91908080601f016020809104026020016040519081016040528093929190818152602001838380828437600081840152601f19601f820116905080830192505050505050509192919290803590602001909291908035906020019092919050505062000919565b604051808215151515815260200191505060405180910390f35b6200026560048036036060811015620001aa57600080fd5b8101908080359060200190640100000000811115620001c857600080fd5b820183602082011115620001db57600080fd5b80359060200191846001830284011164010000000083111715620001fe57600080fd5b91908080601f016020809104026020016040519081016040528093929190818152602001838380828437600081840152601f19601f820116905080830192505050505050509192919290803590602001909291908035906020019092919050505062000ae9565b005b3480156200027457600080fd5b50620003a560048036036101408110156200028e57600080fd5b8101908080359060200190640100000000811115620002ac57600080fd5b820183602082011115620002bf57600080fd5b80359060200191846001830284011164010000000083111715620002e257600080fd5b91908080601f016020809104026020016040519081016040528093929190818152602001838380828437600081840152601f19601f8201169050808301925050505050505091929192908035906020019092919080359060200190929190803590602001909291908035906020019092919080359060200190929190803590602001909291908035906020019092919080359060200190929190803573ffffffffffffffffffffffffffffffffffffffff16906020019092919050505062001385565b005b6200047a60048036036060811015620003bf57600080fd5b8101908080359060200190640100000000811115620003dd57600080fd5b820183602082011115620003f057600080fd5b803590602001918460018302840111640100000000831117156200041357600080fd5b91908080601f016020809104026020016040519081016040528093929190818152602001838380828437600081840152601f19601f820116905080830192505050505050509192919290803590602001909291908035906020019092919050505062001731565b604051808215151515815260200191505060405180910390f35b6200058760048036036080811015620004ac57600080fd5b8101908080359060200190640100000000811115620004ca57600080fd5b820183602082011115620004dd57600080fd5b803590602001918460018302840111640100000000831117156200050057600080fd5b91908080601f016020809104026020016040519081016040528093929190818152602001838380828437600081840152601f19601f8201169050808301925050505050505091929192908035906020019092919080359060200190929190803573ffffffffffffffffffffffffffffffffffffffff1690602001909291905050506200202e565b005b3480156200059657600080fd5b506200067460048036036080811015620005af57600080fd5b8101908080359060200190640100000000811115620005cd57600080fd5b820183602082011115620005e057600080fd5b803590602001918460018302840111640100000000831117156200060357600080fd5b91908080601f016020809104026020016040519081016040528093929190818152602001838380828437600081840152601f19601f82011690508083019250505050505050919291929080359060200190929190803590602001909291908035906020019092919050505062002af0565b005b3480156200068357600080fd5b506200074d600480360360408110156200069c57600080fd5b8101908080359060200190640100000000811115620006ba57600080fd5b820183602082011115620006cd57600080fd5b80359060200191846001830284011164010000000083111715620006f057600080fd5b91908080601f016020809104026020016040519081016040528093929190818152602001838380828437600081840152601f19601f8201169050808301925050505050505091929192908035906020019092919050505062002c96565b604051808215151515815260200191505060405180910390f35b3480156200077457600080fd5b5062000834600480360360208110156200078d57600080fd5b8101908080359060200190640100000000811115620007ab57600080fd5b820183602082011115620007be57600080fd5b80359060200191846001830284011164010000000083111715620007e157600080fd5b91908080601f016020809104026020016040519081016040528093929190818152602001838380828437600081840152601f19601f82011690508083019250505050505050919291929050505062002d21565b6040518082815260200191505060405180910390f35b3480156200085757600080fd5b5062000917600480360360208110156200087057600080fd5b81019080803590602001906401000000008111156200088e57600080fd5b820183602082011115620008a157600080fd5b80359060200191846001830284011164010000000083111715620008c457600080fd5b91908080601f016020809104026020016040519081016040528093929190818152602001838380828437600081840152601f19601f82011690508083019250505050505050919291929050505062002dd6565b005b600080831115806200099857506002846040518082805190602001908083835b602083106200095e578051825260208201915060208101905060208303925062000939565b6001836020036101000a0380198251168184511680821785525050505050509050019150509081526020016040518091039020600a015483115b80620009a5575060008211155b8062000a1e57506002846040518082805190602001908083835b60208310620009e45780518252602082019150602081019050602083039250620009bf565b6001836020036101000a0380198251168184511680821785525050505050509050019150509081526020016040518091039020600b015482115b8062000acd57506002846040518082805190602001908083835b6020831062000a5d578051825260208201915060208101905060208303925062000a38565b6001836020036101000a03801982511681845116808217855250505050505090500191505090815260200160405180910390206011016000600185038152602001908152602001600020600060018403815260200190815260200160002060000160009054906101000a900460ff165b1562000add576000905062000ae2565b600190505b9392505050565b60008211801562000b6857506002836040518082805190602001908083835b6020831062000b2d578051825260208201915060208101905060208303925062000b08565b6001836020036101000a0380198251168184511680821785525050505050509050019150509081526020016040518091039020600a01548211155b801562000b755750600081115b801562000bf057506002836040518082805190602001908083835b6020831062000bb5578051825260208201915060208101905060208303925062000b90565b6001836020036101000a0380198251168184511680821785525050505050509050019150509081526020016040518091039020600b01548111155b801562000ca057506002836040518082805190602001908083835b6020831062000c30578051825260208201915060208101905060208303925062000c0b565b6001836020036101000a03801982511681845116808217855250505050505090500191505090815260200160405180910390206011016000600184038152602001908152602001600020600060018303815260200190815260200160002060000160009054906101000a900460ff165b62000cf7576040517f08c379a000000000000000000000000000000000000000000000000000000000815260040180806020018281038252602281526020018062003a146022913960400191505060405180910390fd5b6002836040518082805190602001908083835b6020831062000d2f578051825260208201915060208101905060208303925062000d0a565b6001836020036101000a03801982511681845116808217855250505050505090500191505090815260200160405180910390206011016000600184038152602001908152602001600020600060018303815260200190815260200160002060010160008154811062000d9d57fe5b906000526020600020906003020160020160009054906101000a900473ffffffffffffffffffffffffffffffffffffffff1673ffffffffffffffffffffffffffffffffffffffff163373ffffffffffffffffffffffffffffffffffffffff161462000e70576040517f08c379a000000000000000000000000000000000000000000000000000000000815260040180806020018281038252601f8152602001807f5b4552524f525d204e6f20617574686f7269747920746f2063616e63656c2e0081525060200191505060405180910390fd5b6002836040518082805190602001908083835b6020831062000ea8578051825260208201915060208101905060208303925062000e83565b6001836020036101000a038019825116818451168082178552505050505050905001915050908152602001604051809103902060080154421062000f54576040517f08c379a000000000000000000000000000000000000000000000000000000000815260040180806020018281038252601c8152602001807f5b4552524f525d2043616e63656c2074696d65206973206f7665722e0000000081525060200191505060405180910390fd5b6001836040518082805190602001908083835b6020831062000f8c578051825260208201915060208101905060208303925062000f67565b6001836020036101000a038019825116818451168082178552505050505050905001915050908152602001604051809103902060009054906101000a900473ffffffffffffffffffffffffffffffffffffffff1673ffffffffffffffffffffffffffffffffffffffff1663410085df336002866040518082805190602001908083835b602083106200103457805182526020820191506020810190506020830392506200100f565b6001836020036101000a0380198251168184511680821785525050505050509050019150509081526020016040518091039020600301546002876040518082805190602001908083835b60208310620010a357805182526020820191506020810190506020830392506200107e565b6001836020036101000a038019825116818451168082178552505050505050905001915050908152602001604051809103902060010154036040518363ffffffff1660e01b8152600401808373ffffffffffffffffffffffffffffffffffffffff1673ffffffffffffffffffffffffffffffffffffffff16815260200182815260200192505050600060405180830381600087803b1580156200114557600080fd5b505af11580156200115a573d6000803e3d6000fd5b505050506002836040518082805190602001908083835b6020831062001196578051825260208201915060208101905060208303925062001171565b6001836020036101000a0380198251168184511680821785525050505050509050019150509081526020016040518091039020601101600060018403815260200190815260200160002060006001830381526020019081526020016000206001018054806200120157fe5b600190038181906000526020600020906003020160008082016000905560018201600090556002820160006101000a81549073ffffffffffffffffffffffffffffffffffffffff02191690555050905560006002846040518082805190602001908083835b602083106200128b578051825260208201915060208101905060208303925062001266565b6001836020036101000a03801982511681845116808217855250505050505090500191505090815260200160405180910390206011016000600185038152602001908152602001600020600060018403815260200190815260200160002060000160006101000a81548160ff02191690831515021790555060016002846040518082805190602001908083835b602083106200133d578051825260208201915060208101905060208303925062001318565b6001836020036101000a038019825116818451168082178552505050505050905001915050908152602001604051809103902060050160008282540392505081905550505050565b6000429050336000809054906101000a900473ffffffffffffffffffffffffffffffffffffffff168584604051620013bd9062003518565b808573ffffffffffffffffffffffffffffffffffffffff1673ffffffffffffffffffffffffffffffffffffffff1681526020018473ffffffffffffffffffffffffffffffffffffffff1673ffffffffffffffffffffffffffffffffffffffff1681526020018381526020018273ffffffffffffffffffffffffffffffffffffffff1673ffffffffffffffffffffffffffffffffffffffff168152602001945050505050604051809103906000f0801580156200147d573d6000803e3d6000fd5b5060018c6040518082805190602001908083835b60208310620014b6578051825260208201915060208101905060208303925062001491565b6001836020036101000a038019825116818451168082178552505050505050905001915050908152602001604051809103902060006101000a81548173ffffffffffffffffffffffffffffffffffffffff021916908373ffffffffffffffffffffffffffffffffffffffff160217905550604051806101a001604052803373ffffffffffffffffffffffffffffffffffffffff168152602001898152602001888152602001878152602001600081526020016000815260200186815260200182815260200162015180860283018152602001620151808502830181526020018b81526020018a81526020016040518060800160405280600081526020016000815260200160008152602001600081525081525060028c6040518082805190602001908083835b60208310620016015780518252602082019150602081019050602083039250620015dc565b6001836020036101000a038019825116818451168082178552505050505050905001915050908152602001604051809103902060008201518160000160006101000a81548173ffffffffffffffffffffffffffffffffffffffff021916908373ffffffffffffffffffffffffffffffffffffffff1602179055506020820151816001015560408201518160020155606082015181600301556080820151816004015560a0820151816005015560c0820151816006015560e082015181600701556101008201518160080155610120820151816009015561014082015181600a015561016082015181600b015561018082015181600c016000820151816000015560208201518160010155604082015181600201556060820151816003015550509050505050505050505050505050565b600060016002856040518082805190602001908083835b602083106200176d578051825260208201915060208101905060208303925062001748565b6001836020036101000a03801982511681845116808217855250505050505090500191505090815260200160405180910390206011016000600186038152602001908152602001600020600060018503815260200190815260200160002060000160006101000a81548160ff0219169083151502179055506002846040518082805190602001908083835b602083106200181d5780518252602082019150602081019050602083039250620017f8565b6001836020036101000a038019825116818451168082178552505050505050905001915050908152602001604051809103902060110160006001850381526020019081526020016000206000600184038152602001908152602001600020600101604051806060016040528060646002886040518082805190602001908083835b60208310620018c357805182526020820191506020810190506020830392506200189e565b6001836020036101000a038019825116818451168082178552505050505050905001915050908152602001604051809103902060010154816200190257fe5b046002886040518082805190602001908083835b602083106200193b578051825260208201915060208101905060208303925062001916565b6001836020036101000a0380198251168184511680821785525050505050509050019150509081526020016040518091039020600101543403038152602001600081526020013373ffffffffffffffffffffffffffffffffffffffff1681525090806001815401808255809150509060018203906000526020600020906003020160009091929091909150600082015181600001556020820151816001015560408201518160020160006101000a81548173ffffffffffffffffffffffffffffffffffffffff021916908373ffffffffffffffffffffffffffffffffffffffff16021790555050505060646002856040518082805190602001908083835b6020831062001a5e578051825260208201915060208101905060208303925062001a39565b6001836020036101000a0380198251168184511680821785525050505050509050019150509081526020016040518091039020600101548162001a9d57fe5b046002856040518082805190602001908083835b6020831062001ad6578051825260208201915060208101905060208303925062001ab1565b6001836020036101000a0380198251168184511680821785525050505050509050019150509081526020016040518091039020600101543403036002856040518082805190602001908083835b6020831062001b48578051825260208201915060208101905060208303925062001b23565b6001836020036101000a03801982511681845116808217855250505050505090500191505090815260200160405180910390206004016000828254019250508190555060016002856040518082805190602001908083835b6020831062001bc5578051825260208201915060208101905060208303925062001ba0565b6001836020036101000a0380198251168184511680821785525050505050509050019150509081526020016040518091039020600501600082825401925050819055506002846040518082805190602001908083835b6020831062001c40578051825260208201915060208101905060208303925062001c1b565b6001836020036101000a03801982511681845116808217855250505050505090500191505090815260200160405180910390206001015434036002856040518082805190602001908083835b6020831062001cb1578051825260208201915060208101905060208303925062001c8c565b6001836020036101000a0380198251168184511680821785525050505050509050019150509081526020016040518091039020600c01600001541162001d705762001d6f84336002876040518082805190602001908083835b6020831062001d2f578051825260208201915060208101905060208303925062001d0a565b6001836020036101000a03801982511681845116808217855250505050505090500191505090815260200160405180910390206001015434033362003146565b5b6000809054906101000a900473ffffffffffffffffffffffffffffffffffffffff1673ffffffffffffffffffffffffffffffffffffffff166108fc60646002876040518082805190602001908083835b6020831062001de5578051825260208201915060208101905060208303925062001dc0565b6001836020036101000a0380198251168184511680821785525050505050509050019150509081526020016040518091039020600101548162001e2457fe5b049081150290604051600060405180830381858888f1935050505015801562001e51573d6000803e3d6000fd5b506001846040518082805190602001908083835b6020831062001e8a578051825260208201915060208101905060208303925062001e65565b6001836020036101000a038019825116818451168082178552505050505050905001915050908152602001604051809103902060009054906101000a900473ffffffffffffffffffffffffffffffffffffffff1673ffffffffffffffffffffffffffffffffffffffff166338cc48316040518163ffffffff1660e01b815260040160206040518083038186803b15801562001f2457600080fd5b505afa15801562001f39573d6000803e3d6000fd5b505050506040513d602081101562001f5057600080fd5b810190808051906020019092919050505073ffffffffffffffffffffffffffffffffffffffff166108fc60646002876040518082805190602001908083835b6020831062001fb4578051825260208201915060208101905060208303925062001f8f565b6001836020036101000a0380198251168184511680821785525050505050509050019150509081526020016040518091039020600101548162001ff357fe5b0434039081150290604051600060405180830381858888f1935050505015801562002022573d6000803e3d6000fd5b50600190509392505050565b600083118015620020ad57506002846040518082805190602001908083835b602083106200207257805182526020820191506020810190506020830392506200204d565b6001836020036101000a0380198251168184511680821785525050505050509050019150509081526020016040518091039020600a01548311155b8015620020ba5750600082115b80156200213557506002846040518082805190602001908083835b60208310620020fa5780518252602082019150602081019050602083039250620020d5565b6001836020036101000a0380198251168184511680821785525050505050509050019150509081526020016040518091039020600b01548211155b8015620021e557506002846040518082805190602001908083835b6020831062002175578051825260208201915060208101905060208303925062002150565b6001836020036101000a03801982511681845116808217855250505050505090500191505090815260200160405180910390206011016000600185038152602001908152602001600020600060018403815260200190815260200160002060000160009054906101000a900460ff165b6200223c576040517f08c379a000000000000000000000000000000000000000000000000000000000815260040180806020018281038252602281526020018062003a146022913960400191505060405180910390fd5b6002846040518082805190602001908083835b602083106200227457805182526020820191506020810190506020830392506200224f565b6001836020036101000a038019825116818451168082178552505050505050905001915050908152602001604051809103902060110160006001850381526020019081526020016000206000600184038152602001908152602001600020600101600081548110620022e257fe5b906000526020600020906003020160020160009054906101000a900473ffffffffffffffffffffffffffffffffffffffff1673ffffffffffffffffffffffffffffffffffffffff168173ffffffffffffffffffffffffffffffffffffffff1614620023b5576040517f08c379a000000000000000000000000000000000000000000000000000000000815260040180806020018281038252601d8152602001807f5b4552524f525d204e6f20617574686f7269747920746f2073656c6c2e00000081525060200191505060405180910390fd5b620023bf62003526565b6002856040518082805190602001908083835b60208310620023f75780518252602082019150602081019050602083039250620023d2565b6001836020036101000a0380198251168184511680821785525050505050509050019150509081526020016040518091039020601101600060018603815260200190815260200160002060006001850381526020019081526020016000206001016000815481106200246557fe5b906000526020600020906003020160405180606001604052908160008201548152602001600182015481526020016002820160009054906101000a900473ffffffffffffffffffffffffffffffffffffffff1673ffffffffffffffffffffffffffffffffffffffff1673ffffffffffffffffffffffffffffffffffffffff168152505090506002856040518082805190602001908083835b60208310620025225780518252602082019150602081019050602083039250620024fd565b6001836020036101000a0380198251168184511680821785525050505050509050019150509081526020016040518091039020601101600060018603815260200190815260200160002060006001850381526020019081526020016000206001018054806200258d57fe5b600190038181906000526020600020906003020160008082016000905560018201600090556002820160006101000a81549073ffffffffffffffffffffffffffffffffffffffff0219169055505090556002856040518082805190602001908083835b60208310620026155780518252602082019150602081019050602083039250620025f0565b6001836020036101000a038019825116818451168082178552505050505050905001915050908152602001604051809103902060110160006001860381526020019081526020016000206000600185038152602001908152602001600020600101604051806060016040528060008152602001600081526020013373ffffffffffffffffffffffffffffffffffffffff1681525090806001815401808255809150509060018203906000526020600020906003020160009091929091909150600082015181600001556020820151816001015560408201518160020160006101000a81548173ffffffffffffffffffffffffffffffffffffffff021916908373ffffffffffffffffffffffffffffffffffffffff1602179055505050506002856040518082805190602001908083835b602083106200276a578051825260208201915060208101905060208303925062002745565b6001836020036101000a0380198251168184511680821785525050505050509050019150509081526020016040518091039020601101600060018603815260200190815260200160002060006001850381526020019081526020016000206001018190806001815401808255809150509060018203906000526020600020906003020160009091929091909150600082015181600001556020820151816001015560408201518160020160006101000a81548173ffffffffffffffffffffffffffffffffffffffff021916908373ffffffffffffffffffffffffffffffffffffffff1602179055505050506001856040518082805190602001908083835b602083106200288d578051825260208201915060208101905060208303925062002868565b6001836020036101000a038019825116818451168082178552505050505050905001915050908152602001604051809103902060009054906101000a900473ffffffffffffffffffffffffffffffffffffffff1673ffffffffffffffffffffffffffffffffffffffff166338cc48316040518163ffffffff1660e01b815260040160206040518083038186803b1580156200292757600080fd5b505afa1580156200293c573d6000803e3d6000fd5b505050506040513d60208110156200295357600080fd5b810190808051906020019092919050505073ffffffffffffffffffffffffffffffffffffffff166108fc6002876040518082805190602001908083835b60208310620029b5578051825260208201915060208101905060208303925062002990565b6001836020036101000a0380198251168184511680821785525050505050509050019150509081526020016040518091039020600601543481620029f557fe5b049081150290604051600060405180830381858888f1935050505015801562002a22573d6000803e3d6000fd5b50806040015173ffffffffffffffffffffffffffffffffffffffff166108fc6002876040518082805190602001908083835b6020831062002a79578051825260208201915060208101905060208303925062002a54565b6001836020036101000a038019825116818451168082178552505050505050905001915050908152602001604051809103902060060154348162002ab957fe5b0434039081150290604051600060405180830381858888f1935050505015801562002ae8573d6000803e3d6000fd5b505050505050565b833373ffffffffffffffffffffffffffffffffffffffff166002826040518082805190602001908083835b6020831062002b40578051825260208201915060208101905060208303925062002b1b565b6001836020036101000a038019825116818451168082178552505050505050905001915050908152602001604051809103902060000160009054906101000a900473ffffffffffffffffffffffffffffffffffffffff1673ffffffffffffffffffffffffffffffffffffffff161462002bb857600080fd5b6064821115801562002bca5750600082115b62002bd457600080fd5b604051806080016040528085815260200184815260200160008152602001838152506002866040518082805190602001908083835b6020831062002c2e578051825260208201915060208101905060208303925062002c09565b6001836020036101000a0380198251168184511680821785525050505050509050019150509081526020016040518091039020600c01600082015181600001556020820151816001015560408201518160020155606082015181600301559050505050505050565b6000816002846040518082805190602001908083835b6020831062002cd1578051825260208201915060208101905060208303925062002cac565b6001836020036101000a0380198251168184511680821785525050505050509050019150509081526020016040518091039020600201541062002d1657600162002d19565b60005b905092915050565b60006002826040518082805190602001908083835b6020831062002d5b578051825260208201915060208101905060208303925062002d36565b6001836020036101000a038019825116818451168082178552505050505050905001915050908152602001604051809103902060100160003373ffffffffffffffffffffffffffffffffffffffff1673ffffffffffffffffffffffffffffffffffffffff168152602001908152602001600020549050919050565b803373ffffffffffffffffffffffffffffffffffffffff166002826040518082805190602001908083835b6020831062002e26578051825260208201915060208101905060208303925062002e01565b6001836020036101000a038019825116818451168082178552505050505050905001915050908152602001604051809103902060000160009054906101000a900473ffffffffffffffffffffffffffffffffffffffff1673ffffffffffffffffffffffffffffffffffffffff161462002e9e57600080fd5b6002826040518082805190602001908083835b6020831062002ed6578051825260208201915060208101905060208303925062002eb1565b6001836020036101000a03801982511681845116808217855250505050505090500191505090815260200160405180910390206008015442101562002f1a57600080fd5b6001826040518082805190602001908083835b6020831062002f52578051825260208201915060208101905060208303925062002f2d565b6001836020036101000a038019825116818451168082178552505050505050905001915050908152602001604051809103902060009054906101000a900473ffffffffffffffffffffffffffffffffffffffff1673ffffffffffffffffffffffffffffffffffffffff1663e8e8caa4336002856040518082805190602001908083835b6020831062002ffa578051825260208201915060208101905060208303925062002fd5565b6001836020036101000a0380198251168184511680821785525050505050509050019150509081526020016040518091039020600401546040518363ffffffff1660e01b8152600401808373ffffffffffffffffffffffffffffffffffffffff1673ffffffffffffffffffffffffffffffffffffffff16815260200182815260200192505050600060405180830381600087803b1580156200309b57600080fd5b505af1158015620030b0573d6000803e3d6000fd5b505050506001826040518082805190602001908083835b60208310620030ec5780518252602082019150602081019050602083039250620030c7565b6001836020036101000a038019825116818451168082178552505050505050905001915050908152602001604051809103902060006101000a81549073ffffffffffffffffffffffffffffffffffffffff02191690555050565b816002856040518082805190602001908083835b602083106200317f57805182526020820191506020810190506020830392506200315a565b6001836020036101000a0380198251168184511680821785525050505050509050019150509081526020016040518091039020600c01600001541115620031c557600080fd5b60646002856040518082805190602001908083835b60208310620031ff5780518252602082019150602081019050602083039250620031da565b6001836020036101000a0380198251168184511680821785525050505050509050019150509081526020016040518091039020600c016003015411156200324557600080fd5b6002846040518082805190602001908083835b602083106200327d578051825260208201915060208101905060208303925062003258565b6001836020036101000a0380198251168184511680821785525050505050509050019150509081526020016040518091039020600c01600201546002856040518082805190602001908083835b60208310620032ef5780518252602082019150602081019050602083039250620032ca565b6001836020036101000a0380198251168184511680821785525050505050509050019150509081526020016040518091039020600c016001015410156200333557600080fd5b600060648273ffffffffffffffffffffffffffffffffffffffff16816200335857fe5b0690506002856040518082805190602001908083835b602083106200339357805182526020820191506020810190506020830392506200336e565b6001836020036101000a0380198251168184511680821785525050505050509050019150509081526020016040518091039020600c0160030154811162003511576002856040518082805190602001908083835b602083106200340c5780518252602082019150602081019050602083039250620033e7565b6001836020036101000a038019825116818451168082178552505050505050905001915050908152602001604051809103902060100160008573ffffffffffffffffffffffffffffffffffffffff1673ffffffffffffffffffffffffffffffffffffffff168152602001908152602001600020600081548092919060010191905055506002856040518082805190602001908083835b60208310620034c75780518252602082019150602081019050602083039250620034a2565b6001836020036101000a0380198251168184511680821785525050505050509050019150509081526020016040518091039020600c01600201600081548092919060010191905055505b5050505050565b6104b6806200355e83390190565b60405180606001604052806000815260200160008152602001600073ffffffffffffffffffffffffffffffffffffffff168152509056fe6080604052600a60045534801561001557600080fd5b506040516080806104b68339810180604052608081101561003557600080fd5b8101908080519060200190929190805190602001909291908051906020019092919080519060200190929190505050600073ffffffffffffffffffffffffffffffffffffffff166000809054906101000a900473ffffffffffffffffffffffffffffffffffffffff1673ffffffffffffffffffffffffffffffffffffffff1614610127576040517f08c379a00000000000000000000000000000000000000000000000000000000081526004018080602001828103825260118152602001807f5b4552524f525d4e6f7420766163616e7400000000000000000000000000000081525060200191505060405180910390fd5b836000806101000a81548173ffffffffffffffffffffffffffffffffffffffff021916908373ffffffffffffffffffffffffffffffffffffffff16021790555082600160006101000a81548173ffffffffffffffffffffffffffffffffffffffff021916908373ffffffffffffffffffffffffffffffffffffffff1602179055508160038190555080600260006101000a81548173ffffffffffffffffffffffffffffffffffffffff021916908373ffffffffffffffffffffffffffffffffffffffff160217905550505050506102b3806102036000396000f3fe6080604052600436106100345760003560e01c806338cc483114610036578063410085df1461008d578063e8e8caa4146100db575b005b34801561004257600080fd5b5061004b610129565b604051808273ffffffffffffffffffffffffffffffffffffffff1673ffffffffffffffffffffffffffffffffffffffff16815260200191505060405180910390f35b6100d9600480360360408110156100a357600080fd5b81019080803573ffffffffffffffffffffffffffffffffffffffff16906020019092919080359060200190929190505050610131565b005b610127600480360360408110156100f157600080fd5b81019080803573ffffffffffffffffffffffffffffffffffffffff1690602001909291908035906020019092919050505061017c565b005b600030905090565b8173ffffffffffffffffffffffffffffffffffffffff166108fc829081150290604051600060405180830381858888f19350505050158015610177573d6000803e3d6000fd5b505050565b8173ffffffffffffffffffffffffffffffffffffffff166000809054906101000a900473ffffffffffffffffffffffffffffffffffffffff1673ffffffffffffffffffffffffffffffffffffffff16146101d557600080fd5b6003544210156101e457600080fd5b600260009054906101000a900473ffffffffffffffffffffffffffffffffffffffff1673ffffffffffffffffffffffffffffffffffffffff166108fc829081150290604051600060405180830381858888f1935050505015801561024c573d6000803e3d6000fd5b506000809054906101000a900473ffffffffffffffffffffffffffffffffffffffff1673ffffffffffffffffffffffffffffffffffffffff16fffea165627a7a72305820cd48a59e0b175a831d5ee0f252cd381c1a400ba196f8685d18f15c8f11cc146900295b4552524f525d204e6f2076616c6964207365617420696e666f726d6174696f6e2ea165627a7a723058209ccb523564b9922d056b8ea6d06dfd6148c88cdc2888d39d15dc10473e8b3cce0029",
  "source": "pragma solidity ^0.5.0;\r\nimport \"./agencyAddress.sol\";\r\n\r\ncontract Ticketing {\r\n    address payable owner; // \r\n    mapping(string => agencyAddress) accountMap; //address  contract  \r\n//   mapping     .\r\n\r\n    struct customer {\r\n        uint donationAmount;\r\n        uint donationPoint;\r\n        address payable custAdrr;\r\n    }//() \r\n    \r\n    struct seat {\r\n        bool isEmpty;//\r\n        customer[] person;\r\n    }// \r\n    \r\n    struct transferList{\r\n        address payable seller;\r\n        uint price;\r\n    }//            \r\n    \r\n    struct Reward{\r\n        uint rewardFee; // reward  \r\n        uint rewardNum; // reward \r\n        uint rewardindex; //  reward \r\n        uint eventpercentage; //event (%)\r\n    }\r\n//  \r\n    struct concert {\r\n        address payable agency;\r\n        uint ticketPrice;\r\n        uint limitTicketPrice;\r\n        uint cancelFee; \r\n        uint donation; //\r\n        uint soldout; // \r\n        //uint cancelNum; //     \r\n        uint givingConstant; //for blackMoney\r\n        // uint blackMoney; //from resell ticket. should send this to agency\r\n        uint timeStamp; //contract generate time\r\n        uint timeCancel; //available cancel time\r\n        uint timeLastBook; //Last booking time\r\n\r\n        /* seat information*/\r\n        uint row;\r\n        uint col;\r\n        \r\n        Reward reward;\r\n        mapping(address => uint) rewardManage; //reward  \r\n        \r\n        mapping(uint => mapping(uint => seat)) seats; //  2 .\r\n    }\r\n    \r\n    \r\n    mapping(string => concert) concerts; // \r\n    \r\n    //     \r\n    constructor () public { // main contract \r\n        owner = msg.sender;\r\n    }\r\n    \r\n    //    . (( ),  , )\r\n//        ,     address \r\n//    .\r\n    function selectSeat(string memory artist, uint _row, uint _col) public payable returns (bool){\r\n        //require(msg.value >= concerts[artist].ticketPrice, \"[ERROR] Please check the price.\");\r\n        \r\n        //require(now < concerts[artist].timeLastBook, \"[ERROR] The booking time is over.\");\r\n        //require(isValidSeat(artist, _row, _col), \"[ERROR] The seat have been sold already.\");\r\n        \r\n        concerts[artist].seats[_row-1][_col-1].isEmpty = true;\r\n        concerts[artist].seats[_row-1][_col-1].person.push(\r\n                customer(msg.value - concerts[artist].ticketPrice-concerts[artist].ticketPrice/100, 0, msg.sender));\r\n       \r\n        concerts[artist].donation += msg.value - concerts[artist].ticketPrice-concerts[artist].ticketPrice/100;\r\n        concerts[artist].soldout+=1;\r\n        \r\n//   - >     \r\n        if(concerts[artist].reward.rewardFee <=msg.value - concerts[artist].ticketPrice){\r\n            rewardManage(artist, msg.sender, msg.value - concerts[artist].ticketPrice, msg.sender);\r\n        }\r\n        //msg.value.transfer(accountMap[artist]);\r\n        owner.transfer(concerts[artist].ticketPrice/100);\r\n        accountMap[artist].getAddress().transfer(msg.value-concerts[artist].ticketPrice/100);\r\n        \r\n        return true;\r\n    }\r\n    \r\n    //            \r\n    function cancelTicket(string memory artist, uint _row, uint _col) public payable{\r\n        //require(msg.value == concerts[artist].cancelFee, \"Please check the cancellation fee.\");\r\n        require((_row > 0) && (_row <= concerts[artist].row) && (_col > 0) && (_col <= concerts[artist].col) && \r\n                (concerts[artist].seats[_row-1][_col-1].isEmpty), \r\n                \"[ERROR] No valid seat information.\");\r\n        require(msg.sender == concerts[artist].seats[_row-1][_col-1].person[0].custAdrr, \"[ERROR] No authority to cancel.\");\r\n        require(now < concerts[artist].timeCancel, \"[ERROR] Cancel time is over.\");\r\n        /*concerts[artist].seats[_row-1][_col-1].person[0].custAdrr.transfer(concerts[artist].ticketPrice);\r\n        accountMap[artist].refund(concerts[artist].seats[_row-1][_col-1].person[0].custAdrr, concerts[artist].ticketPrice);*/\r\n        \r\n        // refund   \r\n        accountMap[artist].refund(msg.sender,concerts[artist].ticketPrice-concerts[artist].cancelFee);\r\n        \r\n//  \r\n        concerts[artist].seats[_row-1][_col-1].person.pop();\r\n        concerts[artist].seats[_row-1][_col-1].isEmpty = false;\r\n        concerts[artist].soldout-=1;\r\n    }\r\n    \r\n// web      address     seller\r\n// , ,    . \r\n// reward      seat  pop .\r\n//   seats[][].person[0]  .\r\n    function reSellTicket(string memory artist, uint _row, uint _col, \r\n                        address _seller) public payable{ //for here, msg.sender is ppl who want to buy\r\n                        \r\n        require((_row > 0) && (_row <= concerts[artist].row) && (_col > 0) && (_col <= concerts[artist].col) \r\n            && (concerts[artist].seats[_row-1][_col-1].isEmpty), \"[ERROR] No valid seat information.\");\r\n\r\n        require(_seller == concerts[artist].seats[_row-1][_col-1].person[0].custAdrr, \"[ERROR] No authority to sell.\");\r\n        \r\n        customer memory temp =  concerts[artist].seats[_row-1][_col-1].person[0];\r\n        concerts[artist].seats[_row-1][_col-1].person.pop();\r\n        concerts[artist].seats[_row-1][_col-1].person.push(customer(0, 0, msg.sender));\r\n        concerts[artist].seats[_row-1][_col-1].person.push(temp);\r\n        accountMap[artist].getAddress().transfer(msg.value / concerts[artist].givingConstant);\r\n        temp.custAdrr.transfer(msg.value - msg.value / concerts[artist].givingConstant);\r\n    }\r\n\r\n    //  \r\n    function newConcert(string memory artist, uint _row, uint _col, uint _ticketPrice, uint _limitTicketPrice, uint _cancelFee, uint _givingConstant, \r\n                    uint _timeCancel, uint _timeLastBook, address payable _donateAddr) public {\r\n        uint timenow = now;\r\n\r\n        //   \r\n        accountMap[artist] = new agencyAddress(msg.sender, owner, _timeCancel, _donateAddr);\r\n        \r\n        concerts[artist] = concert(msg.sender, _ticketPrice, _limitTicketPrice, _cancelFee, 0, 0, _givingConstant, \r\n                        timenow, timenow + _timeCancel * 1 days, timenow + _timeLastBook * 1 days, _row, _col, Reward(0, 0, 0, 0));\r\n         \r\n       \r\n    }\r\n    \r\n    //it is \r\n    function newReward(string memory artist, uint _rewardFee, uint _rewardNum, uint _eventpercentage) isValidator(artist) public{\r\n        require(_eventpercentage <=100 && _eventpercentage >0);\r\n        concerts[artist].reward = Reward(_rewardFee, _rewardNum, 0, _eventpercentage);\r\n    } \r\n    // function collectFees(string memory artist, address payable _donateAddr) isOwner public {\r\n    //     owner.transfer(concerts[artist].bookingFee * concerts[artist].soldout + concerts[artist].cancelFee * concerts[artist].cancelNum);\r\n    //     _donateAddr.transfer(concerts[artist].donation);\r\n    //     concerts[artist].agency.transfer(concerts[artist].ticketPrice * concerts[artist].soldout + concerts[artist].blackMoney);\r\n        \r\n    // }\r\n    \r\n//     ,    \r\n    function cancelConcert(string memory artist) isValidator(artist) public {\r\n    require(now>=concerts[artist].timeCancel);\r\n        accountMap[artist].receiveMoney(msg.sender, concerts[artist].donation);\r\n        delete accountMap[artist];\r\n    }\r\n\r\n//  \r\n    function rewardManage(string memory artist, address _user, uint _donation, address _userAddress) internal{\r\n        require(concerts[artist].reward.rewardFee <= _donation);\r\n        require(concerts[artist].reward.eventpercentage <= 100);\r\n        require(concerts[artist].reward.rewardNum >= concerts[artist].reward.rewardindex);\r\n     \r\n       //   100      \r\n        uint userReward= uint(uint160(_userAddress))%100;\r\n        if(userReward <= concerts[artist].reward.eventpercentage){\r\n            concerts[artist].rewardManage[_user]++; \r\n            concerts[artist].reward.rewardindex++;\r\n        }\r\n    }\r\n    \r\n    //     .\r\n    function CheckReward(string memory artist) public view returns(uint){\r\n        return(concerts[artist].rewardManage[msg.sender]);\r\n    }\r\n    \r\n    // \r\n    modifier isOwner {\r\n        require(owner == msg.sender, \"[ERROR] You have no authority\");\r\n            _;\r\n    }\r\n    // \r\n    modifier isValidator(string memory artist) {\r\n        require(concerts[artist].agency==msg.sender);\r\n        _;\r\n    }\r\n    \r\n    function isValidSeat(string memory artist, uint _row, uint _col) public view returns (bool){\r\n        if((_row <= 0) || (_row > concerts[artist].row) || (_col <= 0) || (_col > concerts[artist].col) \r\n            || concerts[artist].seats[_row-1][_col-1].isEmpty)\r\n            return false;\r\n        \r\n        else return true;\r\n    }\r\n    \r\n    function isValidPrice(string memory artist, uint _price) public view returns(bool){\r\n        return (concerts[artist].limitTicketPrice < _price ? false : true);\r\n    }\r\n    \r\n}\r\n\r\n\r\n",
  "sourcePath": "C:/Users//prj/whiteticket/contracts/Ticketing.sol",
  "compiler": {
    "name": "solc",
    "version": "0.5.8+commit.23d335f2.Emscripten.clang"
  },
  "schemaVersion": "3.0.11",
  "updatedAt": "2019-08-02T02:25:26.274Z",
  "devdoc": {
    "methods": {}
  },
  "userdoc": {
    "methods": {}
  }
}